{
  "contractName": "SASIToken",
  "abi": [
    {
      "inputs": [],
      "payable": false,
      "stateMutability": "nonpayable",
      "type": "constructor"
    },
    {
      "constant": true,
      "inputs": [],
      "name": "totalSupply",
      "outputs": [
        {
          "internalType": "uint256",
          "name": "",
          "type": "uint256"
        }
      ],
      "payable": false,
      "stateMutability": "view",
      "type": "function"
    }
  ],
  "bytecode": "0x6080604052348015600f57600080fd5b50620f42406000819055506084806100286000396000f3fe6080604052348015600f57600080fd5b506004361060285760003560e01c806318160ddd14602d575b600080fd5b60336049565b6040518082815260200191505060405180910390f35b6000548156fea265627a7a723158206f9f7a159532f9e19b52fc36a6e4938b9473d017fd8b2214103fcc5c3b64388a64736f6c63430005100032",
  "source": "pragma solidity ^0.5.16;\n\ncontract SASIToken {\n\t// Constructor\n\t// Set  total # of tokens\n\t// Read total # of tokens\n\tuint256 public totalSupply; // Declare totalSupply variable\n\n\tconstructor () public {   // Token constructor\n\t\ttotalSupply = 1000000;\n\n\t}\n\n}\n\n\n",
  "sourcePath": "/Users/nishant/BlockchainProjects/tokenICO/token_sale_DEMO/contracts/SASIToken.sol",
  "compiler": {
    "name": "solc",
    "version": "0.5.16+commit.9c3226ce.Emscripten.clang"
  },
  "schemaVersion": "3.4.1",
  "updatedAt": "2021-06-14T18:19:12.794Z",
  "networkType": "ethereum",
  "devdoc": {
    "methods": {}
  },
  "userdoc": {
    "methods": {}
  }
}