{
  "contractName": "SASITokenSale",
  "abi": [
    {
      "constant": true,
      "inputs": [],
      "name": "tokenContract",
      "outputs": [
        {
          "internalType": "contract SASIToken",
          "name": "",
          "type": "address"
        }
      ],
      "payable": false,
      "stateMutability": "view",
      "type": "function"
    },
    {
      "constant": true,
      "inputs": [],
      "name": "tokenPrice",
      "outputs": [
        {
          "internalType": "uint256",
          "name": "",
          "type": "uint256"
        }
      ],
      "payable": false,
      "stateMutability": "view",
      "type": "function"
    },
    {
      "constant": false,
      "inputs": [
        {
          "internalType": "contract SASIToken",
          "name": "_tokenContract",
          "type": "address"
        },
        {
          "internalType": "uint256",
          "name": "_tokenPrice",
          "type": "uint256"
        }
      ],
      "name": "SASITokenSale_",
      "outputs": [],
      "payable": false,
      "stateMutability": "nonpayable",
      "type": "function"
    }
  ],
  "bytecode": "0x608060405234801561001057600080fd5b506101e9806100206000396000f3fe608060405234801561001057600080fd5b50600436106100415760003560e01c80632fa9828f1461004657806355a373d6146100945780637ff9b596146100de575b600080fd5b6100926004803603604081101561005c57600080fd5b81019080803573ffffffffffffffffffffffffffffffffffffffff169060200190929190803590602001909291905050506100fc565b005b61009c610188565b604051808273ffffffffffffffffffffffffffffffffffffffff1673ffffffffffffffffffffffffffffffffffffffff16815260200191505060405180910390f35b6100e66101ae565b6040518082815260200191505060405180910390f35b336000806101000a81548173ffffffffffffffffffffffffffffffffffffffff021916908373ffffffffffffffffffffffffffffffffffffffff16021790555081600160006101000a81548173ffffffffffffffffffffffffffffffffffffffff021916908373ffffffffffffffffffffffffffffffffffffffff160217905550806002819055505050565b600160009054906101000a900473ffffffffffffffffffffffffffffffffffffffff1681565b6002548156fea265627a7a72315820b32050b2b54b048b71d0bf3631291bd4a0b39a578b3d73a20b097ecca9a3069b64736f6c63430005100032",
  "source": "pragma solidity ^0.5.16;\n\nimport \"./SASIToken.sol\";\n\ncontract SASITokenSale {\n\taddress admin;\n\tSASIToken public tokenContract;\n\tuint256   public tokenPrice;\n\n\tfunction SASITokenSale_(SASIToken _tokenContract, uint256 _tokenPrice) public {\n\t\t// Assign an admin\n\t\tadmin = msg.sender;\n\t\t// Token Contract\n\t\ttokenContract = _tokenContract; \n\t\t// SASIToken\n\t\t// Token Price\n\t\ttokenPrice = _tokenPrice;\n\t\t// admin = address\n\t}\n}",
  "sourcePath": "/Users/nishant/BlockchainProjects/tokenICO/token_sale_project/contracts/SASITokenSale.sol",
  "compiler": {
    "name": "solc",
    "version": "0.5.16+commit.9c3226ce.Emscripten.clang"
  },
  "schemaVersion": "3.4.1",
  "updatedAt": "2021-06-20T18:04:42.802Z",
  "networkType": "ethereum",
  "devdoc": {
    "methods": {}
  },
  "userdoc": {
    "methods": {}
  }
}